{
  "_format": "hh-sol-artifact-1",
  "contractName": "LendingPool",
  "sourceName": "src/LendingPool.sol",
  "abi": [
    {
      "inputs": [
        {
          "internalType": "address",
          "name": "_usdc",
          "type": "address"
        },
        {
          "internalType": "address",
          "name": "_creditVoucherNFT",
          "type": "address"
        }
      ],
      "stateMutability": "nonpayable",
      "type": "constructor"
    },
    {
      "inputs": [],
      "name": "DebtNotFullyRepaid",
      "type": "error"
    },
    {
      "inputs": [],
      "name": "InsufficientBalance",
      "type": "error"
    },
    {
      "inputs": [],
      "name": "InsufficientPoolLiquidity",
      "type": "error"
    },
    {
      "inputs": [],
      "name": "InvalidAmount",
      "type": "error"
    },
    {
      "inputs": [],
      "name": "InvalidTier",
      "type": "error"
    },
    {
      "inputs": [],
      "name": "NoOutstandingDebt",
      "type": "error"
    },
    {
      "inputs": [],
      "name": "VoucherAlreadyExists",
      "type": "error"
    },
    {
      "inputs": [],
      "name": "VoucherNotFound",
      "type": "error"
    },
    {
      "anonymous": false,
      "inputs": [
        {
          "indexed": true,
          "internalType": "address",
          "name": "user",
          "type": "address"
        },
        {
          "indexed": true,
          "internalType": "uint256",
          "name": "voucherId",
          "type": "uint256"
        },
        {
          "indexed": false,
          "internalType": "uint8",
          "name": "tier",
          "type": "uint8"
        },
        {
          "indexed": false,
          "internalType": "uint256",
          "name": "amount",
          "type": "uint256"
        }
      ],
      "name": "CreditRequested",
      "type": "event"
    },
    {
      "anonymous": false,
      "inputs": [
        {
          "indexed": true,
          "internalType": "address",
          "name": "user",
          "type": "address"
        },
        {
          "indexed": false,
          "internalType": "uint256",
          "name": "amount",
          "type": "uint256"
        }
      ],
      "name": "Deposited",
      "type": "event"
    },
    {
      "anonymous": false,
      "inputs": [
        {
          "indexed": true,
          "internalType": "uint256",
          "name": "voucherId",
          "type": "uint256"
        },
        {
          "indexed": false,
          "internalType": "uint256",
          "name": "interest",
          "type": "uint256"
        }
      ],
      "name": "InterestAccrued",
      "type": "event"
    },
    {
      "anonymous": false,
      "inputs": [
        {
          "indexed": false,
          "internalType": "address",
          "name": "account",
          "type": "address"
        }
      ],
      "name": "Paused",
      "type": "event"
    },
    {
      "anonymous": false,
      "inputs": [
        {
          "indexed": true,
          "internalType": "address",
          "name": "user",
          "type": "address"
        },
        {
          "indexed": true,
          "internalType": "uint256",
          "name": "voucherId",
          "type": "uint256"
        },
        {
          "indexed": false,
          "internalType": "uint256",
          "name": "amount",
          "type": "uint256"
        }
      ],
      "name": "Repaid",
      "type": "event"
    },
    {
      "anonymous": false,
      "inputs": [
        {
          "indexed": true,
          "internalType": "bytes32",
          "name": "role",
          "type": "bytes32"
        },
        {
          "indexed": true,
          "internalType": "bytes32",
          "name": "previousAdminRole",
          "type": "bytes32"
        },
        {
          "indexed": true,
          "internalType": "bytes32",
          "name": "newAdminRole",
          "type": "bytes32"
        }
      ],
      "name": "RoleAdminChanged",
      "type": "event"
    },
    {
      "anonymous": false,
      "inputs": [
        {
          "indexed": true,
          "internalType": "bytes32",
          "name": "role",
          "type": "bytes32"
        },
        {
          "indexed": true,
          "internalType": "address",
          "name": "account",
          "type": "address"
        },
        {
          "indexed": true,
          "internalType": "address",
          "name": "sender",
          "type": "address"
        }
      ],
      "name": "RoleGranted",
      "type": "event"
    },
    {
      "anonymous": false,
      "inputs": [
        {
          "indexed": true,
          "internalType": "bytes32",
          "name": "role",
          "type": "bytes32"
        },
        {
          "indexed": true,
          "internalType": "address",
          "name": "account",
          "type": "address"
        },
        {
          "indexed": true,
          "internalType": "address",
          "name": "sender",
          "type": "address"
        }
      ],
      "name": "RoleRevoked",
      "type": "event"
    },
    {
      "anonymous": false,
      "inputs": [
        {
          "indexed": false,
          "internalType": "address",
          "name": "account",
          "type": "address"
        }
      ],
      "name": "Unpaused",
      "type": "event"
    },
    {
      "anonymous": false,
      "inputs": [
        {
          "indexed": true,
          "internalType": "address",
          "name": "user",
          "type": "address"
        },
        {
          "indexed": false,
          "internalType": "uint256",
          "name": "amount",
          "type": "uint256"
        }
      ],
      "name": "Withdrawn",
      "type": "event"
    },
    {
      "inputs": [],
      "name": "ADMIN_ROLE",
      "outputs": [
        {
          "internalType": "bytes32",
          "name": "",
          "type": "bytes32"
        }
      ],
      "stateMutability": "view",
      "type": "function"
    },
    {
      "inputs": [],
      "name": "BASIS_POINTS",
      "outputs": [
        {
          "internalType": "uint256",
          "name": "",
          "type": "uint256"
        }
      ],
      "stateMutability": "view",
      "type": "function"
    },
    {
      "inputs": [],
      "name": "DEFAULT_ADMIN_ROLE",
      "outputs": [
        {
          "internalType": "bytes32",
          "name": "",
          "type": "bytes32"
        }
      ],
      "stateMutability": "view",
      "type": "function"
    },
    {
      "inputs": [],
      "name": "INTEREST_RATE",
      "outputs": [
        {
          "internalType": "uint256",
          "name": "",
          "type": "uint256"
        }
      ],
      "stateMutability": "view",
      "type": "function"
    },
    {
      "inputs": [],
      "name": "creditVoucherNFT",
      "outputs": [
        {
          "internalType": "contract CreditVoucherNFT",
          "name": "",
          "type": "address"
        }
      ],
      "stateMutability": "view",
      "type": "function"
    },
    {
      "inputs": [
        {
          "internalType": "uint256",
          "name": "amount",
          "type": "uint256"
        }
      ],
      "name": "deposit",
      "outputs": [],
      "stateMutability": "nonpayable",
      "type": "function"
    },
    {
      "inputs": [],
      "name": "getAvailableLiquidity",
      "outputs": [
        {
          "internalType": "uint256",
          "name": "",
          "type": "uint256"
        }
      ],
      "stateMutability": "view",
      "type": "function"
    },
    {
      "inputs": [
        {
          "internalType": "uint256",
          "name": "voucherId",
          "type": "uint256"
        }
      ],
      "name": "getCurrentDebt",
      "outputs": [
        {
          "internalType": "uint256",
          "name": "",
          "type": "uint256"
        }
      ],
      "stateMutability": "view",
      "type": "function"
    },
    {
      "inputs": [],
      "name": "getPoolStats",
      "outputs": [
        {
          "internalType": "uint256",
          "name": "totalDeposits_",
          "type": "uint256"
        },
        {
          "internalType": "uint256",
          "name": "totalBorrowed_",
          "type": "uint256"
        },
        {
          "internalType": "uint256",
          "name": "totalRepaid_",
          "type": "uint256"
        },
        {
          "internalType": "uint256",
          "name": "availableLiquidity",
          "type": "uint256"
        }
      ],
      "stateMutability": "view",
      "type": "function"
    },
    {
      "inputs": [
        {
          "internalType": "bytes32",
          "name": "role",
          "type": "bytes32"
        }
      ],
      "name": "getRoleAdmin",
      "outputs": [
        {
          "internalType": "bytes32",
          "name": "",
          "type": "bytes32"
        }
      ],
      "stateMutability": "view",
      "type": "function"
    },
    {
      "inputs": [
        {
          "internalType": "address",
          "name": "user",
          "type": "address"
        }
      ],
      "name": "getUserVoucherInfo",
      "outputs": [
        {
          "internalType": "uint256",
          "name": "voucherId",
          "type": "uint256"
        },
        {
          "internalType": "uint8",
          "name": "tier",
          "type": "uint8"
        },
        {
          "internalType": "uint256",
          "name": "limit",
          "type": "uint256"
        },
        {
          "internalType": "uint256",
          "name": "utilized",
          "type": "uint256"
        },
        {
          "internalType": "uint256",
          "name": "debt",
          "type": "uint256"
        }
      ],
      "stateMutability": "view",
      "type": "function"
    },
    {
      "inputs": [],
      "name": "getUtilizationRate",
      "outputs": [
        {
          "internalType": "uint256",
          "name": "",
          "type": "uint256"
        }
      ],
      "stateMutability": "view",
      "type": "function"
    },
    {
      "inputs": [
        {
          "internalType": "bytes32",
          "name": "role",
          "type": "bytes32"
        },
        {
          "internalType": "address",
          "name": "account",
          "type": "address"
        }
      ],
      "name": "grantRole",
      "outputs": [],
      "stateMutability": "nonpayable",
      "type": "function"
    },
    {
      "inputs": [
        {
          "internalType": "bytes32",
          "name": "role",
          "type": "bytes32"
        },
        {
          "internalType": "address",
          "name": "account",
          "type": "address"
        }
      ],
      "name": "hasRole",
      "outputs": [
        {
          "internalType": "bool",
          "name": "",
          "type": "bool"
        }
      ],
      "stateMutability": "view",
      "type": "function"
    },
    {
      "inputs": [],
      "name": "pause",
      "outputs": [],
      "stateMutability": "nonpayable",
      "type": "function"
    },
    {
      "inputs": [],
      "name": "paused",
      "outputs": [
        {
          "internalType": "bool",
          "name": "",
          "type": "bool"
        }
      ],
      "stateMutability": "view",
      "type": "function"
    },
    {
      "inputs": [
        {
          "internalType": "bytes32",
          "name": "role",
          "type": "bytes32"
        },
        {
          "internalType": "address",
          "name": "account",
          "type": "address"
        }
      ],
      "name": "renounceRole",
      "outputs": [],
      "stateMutability": "nonpayable",
      "type": "function"
    },
    {
      "inputs": [
        {
          "internalType": "uint256",
          "name": "voucherId",
          "type": "uint256"
        },
        {
          "internalType": "uint256",
          "name": "amount",
          "type": "uint256"
        }
      ],
      "name": "repay",
      "outputs": [],
      "stateMutability": "nonpayable",
      "type": "function"
    },
    {
      "inputs": [
        {
          "internalType": "uint8",
          "name": "tier",
          "type": "uint8"
        }
      ],
      "name": "requestCredit",
      "outputs": [
        {
          "internalType": "uint256",
          "name": "",
          "type": "uint256"
        }
      ],
      "stateMutability": "nonpayable",
      "type": "function"
    },
    {
      "inputs": [
        {
          "internalType": "bytes32",
          "name": "role",
          "type": "bytes32"
        },
        {
          "internalType": "address",
          "name": "account",
          "type": "address"
        }
      ],
      "name": "revokeRole",
      "outputs": [],
      "stateMutability": "nonpayable",
      "type": "function"
    },
    {
      "inputs": [
        {
          "internalType": "bytes4",
          "name": "interfaceId",
          "type": "bytes4"
        }
      ],
      "name": "supportsInterface",
      "outputs": [
        {
          "internalType": "bool",
          "name": "",
          "type": "bool"
        }
      ],
      "stateMutability": "view",
      "type": "function"
    },
    {
      "inputs": [],
      "name": "totalBorrowed",
      "outputs": [
        {
          "internalType": "uint256",
          "name": "",
          "type": "uint256"
        }
      ],
      "stateMutability": "view",
      "type": "function"
    },
    {
      "inputs": [],
      "name": "totalDeposits",
      "outputs": [
        {
          "internalType": "uint256",
          "name": "",
          "type": "uint256"
        }
      ],
      "stateMutability": "view",
      "type": "function"
    },
    {
      "inputs": [],
      "name": "totalRepaid",
      "outputs": [
        {
          "internalType": "uint256",
          "name": "",
          "type": "uint256"
        }
      ],
      "stateMutability": "view",
      "type": "function"
    },
    {
      "inputs": [],
      "name": "unpause",
      "outputs": [],
      "stateMutability": "nonpayable",
      "type": "function"
    },
    {
      "inputs": [],
      "name": "usdc",
      "outputs": [
        {
          "internalType": "contract IERC20",
          "name": "",
          "type": "address"
        }
      ],
      "stateMutability": "view",
      "type": "function"
    },
    {
      "inputs": [
        {
          "internalType": "address",
          "name": "",
          "type": "address"
        }
      ],
      "name": "userDeposits",
      "outputs": [
        {
          "internalType": "uint256",
          "name": "",
          "type": "uint256"
        }
      ],
      "stateMutability": "view",
      "type": "function"
    },
    {
      "inputs": [
        {
          "internalType": "uint256",
          "name": "",
          "type": "uint256"
        }
      ],
      "name": "voucherBorrowTime",
      "outputs": [
        {
          "internalType": "uint256",
          "name": "",
          "type": "uint256"
        }
      ],
      "stateMutability": "view",
      "type": "function"
    },
    {
      "inputs": [
        {
          "internalType": "uint256",
          "name": "",
          "type": "uint256"
        }
      ],
      "name": "voucherDebt",
      "outputs": [
        {
          "internalType": "uint256",
          "name": "",
          "type": "uint256"
        }
      ],
      "stateMutability": "view",
      "type": "function"
    },
    {
      "inputs": [
        {
          "internalType": "uint256",
          "name": "",
          "type": "uint256"
        }
      ],
      "name": "voucherPrincipal",
      "outputs": [
        {
          "internalType": "uint256",
          "name": "",
          "type": "uint256"
        }
      ],
      "stateMutability": "view",
      "type": "function"
    },
    {
      "inputs": [
        {
          "internalType": "uint256",
          "name": "amount",
          "type": "uint256"
        }
      ],
      "name": "withdraw",
      "outputs": [],
      "stateMutability": "nonpayable",
      "type": "function"
    }
  ],
  "bytecode": "0x60c06040523480156200001157600080fd5b50604051620034f0380380620034f08339818101604052810190620000379190620002dd565b600180819055506000600260006101000a81548160ff0219169083151502179055508173ffffffffffffffffffffffffffffffffffffffff1660808173ffffffffffffffffffffffffffffffffffffffff16815250508073ffffffffffffffffffffffffffffffffffffffff1660a08173ffffffffffffffffffffffffffffffffffffffff1681525050620000d66000801b336200011060201b60201c565b620001087fa49807205ce4d355092ef5a8a18f56e8913cf4a201fbe287825b095693c21775336200011060201b60201c565b505062000324565b6200012282826200020160201b60201c565b620001fd57600160008084815260200190815260200160002060000160008373ffffffffffffffffffffffffffffffffffffffff1673ffffffffffffffffffffffffffffffffffffffff16815260200190815260200160002060006101000a81548160ff021916908315150217905550620001a26200026b60201b60201c565b73ffffffffffffffffffffffffffffffffffffffff168173ffffffffffffffffffffffffffffffffffffffff16837f2f8788117e7eff1d82e926ec794901d17c78024a50270940304540a733656f0d60405160405180910390a45b5050565b600080600084815260200190815260200160002060000160008373ffffffffffffffffffffffffffffffffffffffff1673ffffffffffffffffffffffffffffffffffffffff16815260200190815260200160002060009054906101000a900460ff16905092915050565b600033905090565b600080fd5b600073ffffffffffffffffffffffffffffffffffffffff82169050919050565b6000620002a58262000278565b9050919050565b620002b78162000298565b8114620002c357600080fd5b50565b600081519050620002d781620002ac565b92915050565b60008060408385031215620002f757620002f662000273565b5b60006200030785828601620002c6565b92505060206200031a85828601620002c6565b9150509250929050565b60805160a05161314b620003a560003960008181610a5601528181610ba201528181610c5d01528181610dad01528181610e8501528181610f6901528181611009015281816114b501526116c301526000818161091201528181610a7a015281816110fc01528181611214015281816113140152611616015261314b6000f3fe608060405234801561001057600080fd5b50600436106101e55760003560e01c806375b238fc1161010f5780639b745aec116100a2578063bbb8518811610071578063bbb851881461059c578063d547741f146105bd578063d8aed145146105d9578063e1f1c4a7146105f5576101e5565b80639b745aec14610526578063a217fddf14610544578063a72dad0514610562578063b6b55f2514610580576101e5565b806380f134c7116100de57806380f134c7146104885780638456cb59146104bc5780638885a3a1146104c657806391d14854146104f6576101e5565b806375b238fc146103ec5780637d8820971461040a5780637dbc30941461042857806380e2883914610458576101e5565b806336568abe116101875780634a417a53116101565780634a417a53146103745780634c19386c146103925780635b72a33a146103b05780635c975abb146103ce576101e5565b806336568abe146103125780633aaeca621461032e5780633e413bee1461034c5780633f4ba83a1461036a576101e5565b806313c8e60d116101c357806313c8e60d1461027a578063248a9ca3146102aa5780632e1a7d4d146102da5780632f2ff15d146102f6576101e5565b806301ffc9a7146101ea5780630ba36dcd1461021a578063114fd01c1461024a575b600080fd5b61020460048036038101906101ff91906122b5565b610613565b60405161021191906122fd565b60405180910390f35b610234600480360381019061022f9190612376565b61068d565b60405161024191906123bc565b60405180910390f35b610264600480360381019061025f9190612403565b6106a5565b60405161027191906123bc565b60405180910390f35b610294600480360381019061028f9190612403565b6106bd565b6040516102a191906123bc565b60405180910390f35b6102c460048036038101906102bf9190612466565b610774565b6040516102d191906124a2565b60405180910390f35b6102f460048036038101906102ef9190612403565b610793565b005b610310600480360381019061030b91906124bd565b6109b0565b005b61032c600480360381019061032791906124bd565b6109d1565b005b610336610a54565b604051610343919061255c565b60405180910390f35b610354610a78565b6040516103619190612598565b60405180910390f35b610372610a9c565b005b61037c610ad1565b60405161038991906123bc565b60405180910390f35b61039a610b1b565b6040516103a791906123bc565b60405180910390f35b6103b8610b21565b6040516103c591906123bc565b60405180910390f35b6103d6610b27565b6040516103e391906122fd565b60405180910390f35b6103f4610b3e565b60405161040191906124a2565b60405180910390f35b610412610b62565b60405161041f91906123bc565b60405180910390f35b610442600480360381019061043d9190612403565b610b68565b60405161044f91906123bc565b60405180910390f35b610472600480360381019061046d9190612403565b610b80565b60405161047f91906123bc565b60405180910390f35b6104a2600480360381019061049d9190612376565b610b98565b6040516104b39594939291906125cf565b60405180910390f35b6104c4610d16565b005b6104e060048036038101906104db919061264e565b610d4b565b6040516104ed91906123bc565b60405180910390f35b610510600480360381019061050b91906124bd565b6111a5565b60405161051d91906122fd565b60405180910390f35b61052e61120f565b60405161053b91906123bc565b60405180910390f35b61054c6112b5565b60405161055991906124a2565b60405180910390f35b61056a6112bc565b60405161057791906123bc565b60405180910390f35b61059a60048036038101906105959190612403565b6112c2565b005b6105a4611421565b6040516105b4949392919061267b565b60405180910390f35b6105d760048036038101906105d291906124bd565b611446565b005b6105f360048036038101906105ee91906126c0565b611467565b005b6105fd6117c8565b60405161060a91906123bc565b60405180910390f35b60007f7965db0b000000000000000000000000000000000000000000000000000000007bffffffffffffffffffffffffffffffffffffffffffffffffffffffff1916827bffffffffffffffffffffffffffffffffffffffffffffffffffffffff191614806106865750610685826117ce565b5b9050919050565b60066020528060005260406000206000915090505481565b60086020528060005260406000206000915090505481565b60008060086000848152602001908152602001600020549050600081036106e857600091505061076f565b6000600960008581526020019081526020016000205490506000814261070e919061272f565b905060006301e133806127106107249190612763565b826101f4866107339190612763565b61073d9190612763565b61074791906127d4565b90508060076000888152602001908152602001600020546107689190612805565b9450505050505b919050565b6000806000838152602001908152602001600020600101549050919050565b61079b611838565b6107a3611887565b600081036107dd576040517f2c5211c600000000000000000000000000000000000000000000000000000000815260040160405180910390fd5b80600660003373ffffffffffffffffffffffffffffffffffffffff1673ffffffffffffffffffffffffffffffffffffffff168152602001908152602001600020541015610856576040517ff4d678b800000000000000000000000000000000000000000000000000000000815260040160405180910390fd5b600061086061120f565b90508181101561089c576040517f6bb2792900000000000000000000000000000000000000000000000000000000815260040160405180910390fd5b81600660003373ffffffffffffffffffffffffffffffffffffffff1673ffffffffffffffffffffffffffffffffffffffff16815260200190815260200160002060008282546108eb919061272f565b925050819055508160036000828254610904919061272f565b9250508190555061095633837f000000000000000000000000000000000000000000000000000000000000000073ffffffffffffffffffffffffffffffffffffffff166118d19092919063ffffffff16565b3373ffffffffffffffffffffffffffffffffffffffff167f7084f5476618d8e60b11ef0d7d3f06914655adb8793e28ff7f018d4c76d505d58360405161099c91906123bc565b60405180910390a2506109ad611957565b50565b6109b982610774565b6109c281611960565b6109cc8383611974565b505050565b6109d9611a54565b73ffffffffffffffffffffffffffffffffffffffff168173ffffffffffffffffffffffffffffffffffffffff1614610a46576040517f08c379a0000000000000000000000000000000000000000000000000000000008152600401610a3d906128bc565b60405180910390fd5b610a508282611a5c565b5050565b7f000000000000000000000000000000000000000000000000000000000000000081565b7f000000000000000000000000000000000000000000000000000000000000000081565b7fa49807205ce4d355092ef5a8a18f56e8913cf4a201fbe287825b095693c21775610ac681611960565b610ace611b3d565b50565b60008060035403610ae55760009050610b18565b6000600554600454610af7919061272f565b905060035461271082610b0a9190612763565b610b1491906127d4565b9150505b90565b60045481565b6101f481565b6000600260009054906101000a900460ff16905090565b7fa49807205ce4d355092ef5a8a18f56e8913cf4a201fbe287825b095693c2177581565b60035481565b60076020528060005260406000206000915090505481565b60096020528060005260406000206000915090505481565b60008060008060007f000000000000000000000000000000000000000000000000000000000000000073ffffffffffffffffffffffffffffffffffffffff16639b8cf0f9876040518263ffffffff1660e01b8152600401610bf991906128eb565b602060405180830381865afa158015610c16573d6000803e3d6000fd5b505050506040513d601f19601f82011682018060405250810190610c3a919061291b565b945060008503610c5b57600080600080600094509450945094509450610d0d565b7f000000000000000000000000000000000000000000000000000000000000000073ffffffffffffffffffffffffffffffffffffffff16630cfa2fd8866040518263ffffffff1660e01b8152600401610cb491906123bc565b606060405180830381865afa158015610cd1573d6000803e3d6000fd5b505050506040513d601f19601f82011682018060405250810190610cf5919061295d565b809450819550829650505050610d0a856106bd565b90505b91939590929450565b7fa49807205ce4d355092ef5a8a18f56e8913cf4a201fbe287825b095693c21775610d4081611960565b610d48611ba0565b50565b6000610d55611838565b610d5d611887565b60018260ff161080610d72575060038260ff16115b15610da9576040517fe142361700000000000000000000000000000000000000000000000000000000815260040160405180910390fd5b60007f000000000000000000000000000000000000000000000000000000000000000073ffffffffffffffffffffffffffffffffffffffff16639b8cf0f9336040518263ffffffff1660e01b8152600401610e0491906128eb565b602060405180830381865afa158015610e21573d6000803e3d6000fd5b505050506040513d601f19601f82011682018060405250810190610e45919061291b565b905060008114610e81576040517fe8fc5d1b00000000000000000000000000000000000000000000000000000000815260040160405180910390fd5b60007f000000000000000000000000000000000000000000000000000000000000000073ffffffffffffffffffffffffffffffffffffffff16632b01acc4856040518263ffffffff1660e01b8152600401610edc91906129b0565b602060405180830381865afa158015610ef9573d6000803e3d6000fd5b505050506040513d601f19601f82011682018060405250810190610f1d919061291b565b90506000610f2961120f565b905081811015610f65576040517f6bb2792900000000000000000000000000000000000000000000000000000000815260040160405180910390fd5b60007f000000000000000000000000000000000000000000000000000000000000000073ffffffffffffffffffffffffffffffffffffffff1663691562a033886040518363ffffffff1660e01b8152600401610fc29291906129cb565b6020604051808303816000875af1158015610fe1573d6000803e3d6000fd5b505050506040513d601f19601f82011682018060405250810190611005919061291b565b90507f000000000000000000000000000000000000000000000000000000000000000073ffffffffffffffffffffffffffffffffffffffff1663fc30968982856040518363ffffffff1660e01b81526004016110629291906129f4565b600060405180830381600087803b15801561107c57600080fd5b505af1158015611090573d6000803e3d6000fd5b5050505082600860008381526020019081526020016000208190555082600760008381526020019081526020016000208190555042600960008381526020019081526020016000208190555082600460008282546110ee9190612805565b9250508190555061114033847f000000000000000000000000000000000000000000000000000000000000000073ffffffffffffffffffffffffffffffffffffffff166118d19092919063ffffffff16565b803373ffffffffffffffffffffffffffffffffffffffff167fd020f9f92540d36ae7083b9a79e7c2dacf5c42a307c6242fe33465fc2cb440ed8886604051611189929190612a1d565b60405180910390a3809450505050506111a0611957565b919050565b600080600084815260200190815260200160002060000160008373ffffffffffffffffffffffffffffffffffffffff1673ffffffffffffffffffffffffffffffffffffffff16815260200190815260200160002060009054906101000a900460ff16905092915050565b6000807f000000000000000000000000000000000000000000000000000000000000000073ffffffffffffffffffffffffffffffffffffffff166370a08231306040518263ffffffff1660e01b815260040161126b91906128eb565b602060405180830381865afa158015611288573d6000803e3d6000fd5b505050506040513d601f19601f820116820180604052508101906112ac919061291b565b90508091505090565b6000801b81565b60055481565b6112ca611838565b6112d2611887565b6000810361130c576040517f2c5211c600000000000000000000000000000000000000000000000000000000815260040160405180910390fd5b6113593330837f000000000000000000000000000000000000000000000000000000000000000073ffffffffffffffffffffffffffffffffffffffff16611c03909392919063ffffffff16565b80600660003373ffffffffffffffffffffffffffffffffffffffff1673ffffffffffffffffffffffffffffffffffffffff16815260200190815260200160002060008282546113a89190612805565b9250508190555080600360008282546113c19190612805565b925050819055503373ffffffffffffffffffffffffffffffffffffffff167f2da466a7b24304f47e87fa2e1e5a81b9831ce54fec19055ce277ca2f39ba42c48260405161140e91906123bc565b60405180910390a261141e611957565b50565b60008060008060035460045460055461143861120f565b935093509350935090919293565b61144f82610774565b61145881611960565b6114628383611a5c565b505050565b61146f611838565b611477611887565b600081036114b1576040517f2c5211c600000000000000000000000000000000000000000000000000000000815260040160405180910390fd5b60007f000000000000000000000000000000000000000000000000000000000000000073ffffffffffffffffffffffffffffffffffffffff16636352211e846040518263ffffffff1660e01b815260040161150c91906123bc565b602060405180830381865afa158015611529573d6000803e3d6000fd5b505050506040513d601f19601f8201168201806040525081019061154d9190612a5b565b90503373ffffffffffffffffffffffffffffffffffffffff168173ffffffffffffffffffffffffffffffffffffffff16146115b4576040517fe5bd443a00000000000000000000000000000000000000000000000000000000815260040160405180910390fd5b60006115bf846106bd565b9050600081036115fb576040517f0f7c3ae700000000000000000000000000000000000000000000000000000000815260040160405180910390fd5b600081841161160a578361160c565b815b905061165b3330837f000000000000000000000000000000000000000000000000000000000000000073ffffffffffffffffffffffffffffffffffffffff16611c03909392919063ffffffff16565b8082611667919061272f565b600760008781526020019081526020016000208190555060006007600087815260200190815260200160002054905060006008600088815260200190815260200160002054905060008183116116bd57826116bf565b815b90507f000000000000000000000000000000000000000000000000000000000000000073ffffffffffffffffffffffffffffffffffffffff1663fc30968989836040518363ffffffff1660e01b815260040161171c9291906129f4565b600060405180830381600087803b15801561173657600080fd5b505af115801561174a573d6000803e3d6000fd5b5050505083600560008282546117609190612805565b92505081905550873373ffffffffffffffffffffffffffffffffffffffff167f1b8cd61ed43bec7c6bdad3a18ffee613f99c853d16c50678d248d879e1b43438866040516117ae91906123bc565b60405180910390a35050505050506117c4611957565b5050565b61271081565b60007f01ffc9a7000000000000000000000000000000000000000000000000000000007bffffffffffffffffffffffffffffffffffffffffffffffffffffffff1916827bffffffffffffffffffffffffffffffffffffffffffffffffffffffff1916149050919050565b60026001540361187d576040517f08c379a000000000000000000000000000000000000000000000000000000000815260040161187490612ad4565b60405180910390fd5b6002600181905550565b61188f610b27565b156118cf576040517f08c379a00000000000000000000000000000000000000000000000000000000081526004016118c690612b40565b60405180910390fd5b565b6119528363a9059cbb60e01b84846040516024016118f0929190612b60565b604051602081830303815290604052907bffffffffffffffffffffffffffffffffffffffffffffffffffffffff19166020820180517bffffffffffffffffffffffffffffffffffffffffffffffffffffffff8381831617835250505050611c8c565b505050565b60018081905550565b6119718161196c611a54565b611d54565b50565b61197e82826111a5565b611a5057600160008084815260200190815260200160002060000160008373ffffffffffffffffffffffffffffffffffffffff1673ffffffffffffffffffffffffffffffffffffffff16815260200190815260200160002060006101000a81548160ff0219169083151502179055506119f5611a54565b73ffffffffffffffffffffffffffffffffffffffff168173ffffffffffffffffffffffffffffffffffffffff16837f2f8788117e7eff1d82e926ec794901d17c78024a50270940304540a733656f0d60405160405180910390a45b5050565b600033905090565b611a6682826111a5565b15611b3957600080600084815260200190815260200160002060000160008373ffffffffffffffffffffffffffffffffffffffff1673ffffffffffffffffffffffffffffffffffffffff16815260200190815260200160002060006101000a81548160ff021916908315150217905550611ade611a54565b73ffffffffffffffffffffffffffffffffffffffff168173ffffffffffffffffffffffffffffffffffffffff16837ff6391f5c32d9c69d2a47ea670b442974b53935d1edc7fd64eb21e047a839171b60405160405180910390a45b5050565b611b45611dd9565b6000600260006101000a81548160ff0219169083151502179055507f5db9ee0a495bf2e6ff9c91a7834c1ba4fdd244a5e8aa4e537bd38aeae4b073aa611b89611a54565b604051611b9691906128eb565b60405180910390a1565b611ba8611887565b6001600260006101000a81548160ff0219169083151502179055507f62e78cea01bee320cd4e420270b5ea74000d11b0c9f74754ebdbfc544b05a258611bec611a54565b604051611bf991906128eb565b60405180910390a1565b611c86846323b872dd60e01b858585604051602401611c2493929190612b89565b604051602081830303815290604052907bffffffffffffffffffffffffffffffffffffffffffffffffffffffff19166020820180517bffffffffffffffffffffffffffffffffffffffffffffffffffffffff8381831617835250505050611c8c565b50505050565b6000611cee826040518060400160405280602081526020017f5361666545524332303a206c6f772d6c6576656c2063616c6c206661696c65648152508573ffffffffffffffffffffffffffffffffffffffff16611e229092919063ffffffff16565b9050600081511480611d10575080806020019051810190611d0f9190612bec565b5b611d4f576040517f08c379a0000000000000000000000000000000000000000000000000000000008152600401611d4690612c8b565b60405180910390fd5b505050565b611d5e82826111a5565b611dd557611d6b81611e3a565b611d798360001c6020611e67565b604051602001611d8a929190612db4565b6040516020818303038152906040526040517f08c379a0000000000000000000000000000000000000000000000000000000008152600401611dcc9190612e38565b60405180910390fd5b5050565b611de1610b27565b611e20576040517f08c379a0000000000000000000000000000000000000000000000000000000008152600401611e1790612ea6565b60405180910390fd5b565b6060611e3184846000856120a3565b90509392505050565b6060611e608273ffffffffffffffffffffffffffffffffffffffff16601460ff16611e67565b9050919050565b606060006002836002611e7a9190612763565b611e849190612805565b67ffffffffffffffff811115611e9d57611e9c612ec6565b5b6040519080825280601f01601f191660200182016040528015611ecf5781602001600182028036833780820191505090505b5090507f300000000000000000000000000000000000000000000000000000000000000081600081518110611f0757611f06612ef5565b5b60200101907effffffffffffffffffffffffffffffffffffffffffffffffffffffffffffff1916908160001a9053507f780000000000000000000000000000000000000000000000000000000000000081600181518110611f6b57611f6a612ef5565b5b60200101907effffffffffffffffffffffffffffffffffffffffffffffffffffffffffffff1916908160001a90535060006001846002611fab9190612763565b611fb59190612805565b90505b6001811115612055577f3031323334353637383961626364656600000000000000000000000000000000600f861660108110611ff757611ff6612ef5565b5b1a60f81b82828151811061200e5761200d612ef5565b5b60200101907effffffffffffffffffffffffffffffffffffffffffffffffffffffffffffff1916908160001a905350600485901c94508061204e90612f24565b9050611fb8565b5060008414612099576040517f08c379a000000000000000000000000000000000000000000000000000000000815260040161209090612f99565b60405180910390fd5b8091505092915050565b6060824710156120e8576040517f08c379a00000000000000000000000000000000000000000000000000000000081526004016120df9061302b565b60405180910390fd5b6000808673ffffffffffffffffffffffffffffffffffffffff1685876040516121119190613092565b60006040518083038185875af1925050503d806000811461214e576040519150601f19603f3d011682016040523d82523d6000602084013e612153565b606091505b509150915061216487838387612170565b92505050949350505050565b606083156121d25760008351036121ca5761218a856121e5565b6121c9576040517f08c379a00000000000000000000000000000000000000000000000000000000081526004016121c0906130f5565b60405180910390fd5b5b8290506121dd565b6121dc8383612208565b5b949350505050565b6000808273ffffffffffffffffffffffffffffffffffffffff163b119050919050565b60008251111561221b5781518083602001fd5b806040517f08c379a000000000000000000000000000000000000000000000000000000000815260040161224f9190612e38565b60405180910390fd5b600080fd5b60007fffffffff0000000000000000000000000000000000000000000000000000000082169050919050565b6122928161225d565b811461229d57600080fd5b50565b6000813590506122af81612289565b92915050565b6000602082840312156122cb576122ca612258565b5b60006122d9848285016122a0565b91505092915050565b60008115159050919050565b6122f7816122e2565b82525050565b600060208201905061231260008301846122ee565b92915050565b600073ffffffffffffffffffffffffffffffffffffffff82169050919050565b600061234382612318565b9050919050565b61235381612338565b811461235e57600080fd5b50565b6000813590506123708161234a565b92915050565b60006020828403121561238c5761238b612258565b5b600061239a84828501612361565b91505092915050565b6000819050919050565b6123b6816123a3565b82525050565b60006020820190506123d160008301846123ad565b92915050565b6123e0816123a3565b81146123eb57600080fd5b50565b6000813590506123fd816123d7565b92915050565b60006020828403121561241957612418612258565b5b6000612427848285016123ee565b91505092915050565b6000819050919050565b61244381612430565b811461244e57600080fd5b50565b6000813590506124608161243a565b92915050565b60006020828403121561247c5761247b612258565b5b600061248a84828501612451565b91505092915050565b61249c81612430565b82525050565b60006020820190506124b76000830184612493565b92915050565b600080604083850312156124d4576124d3612258565b5b60006124e285828601612451565b92505060206124f385828601612361565b9150509250929050565b6000819050919050565b600061252261251d61251884612318565b6124fd565b612318565b9050919050565b600061253482612507565b9050919050565b600061254682612529565b9050919050565b6125568161253b565b82525050565b6000602082019050612571600083018461254d565b92915050565b600061258282612529565b9050919050565b61259281612577565b82525050565b60006020820190506125ad6000830184612589565b92915050565b600060ff82169050919050565b6125c9816125b3565b82525050565b600060a0820190506125e460008301886123ad565b6125f160208301876125c0565b6125fe60408301866123ad565b61260b60608301856123ad565b61261860808301846123ad565b9695505050505050565b61262b816125b3565b811461263657600080fd5b50565b60008135905061264881612622565b92915050565b60006020828403121561266457612663612258565b5b600061267284828501612639565b91505092915050565b600060808201905061269060008301876123ad565b61269d60208301866123ad565b6126aa60408301856123ad565b6126b760608301846123ad565b95945050505050565b600080604083850312156126d7576126d6612258565b5b60006126e5858286016123ee565b92505060206126f6858286016123ee565b9150509250929050565b7f4e487b7100000000000000000000000000000000000000000000000000000000600052601160045260246000fd5b600061273a826123a3565b9150612745836123a3565b925082820390508181111561275d5761275c612700565b5b92915050565b600061276e826123a3565b9150612779836123a3565b9250828202612787816123a3565b9150828204841483151761279e5761279d612700565b5b5092915050565b7f4e487b7100000000000000000000000000000000000000000000000000000000600052601260045260246000fd5b60006127df826123a3565b91506127ea836123a3565b9250826127fa576127f96127a5565b5b828204905092915050565b6000612810826123a3565b915061281b836123a3565b925082820190508082111561283357612832612700565b5b92915050565b600082825260208201905092915050565b7f416363657373436f6e74726f6c3a2063616e206f6e6c792072656e6f756e636560008201527f20726f6c657320666f722073656c660000000000000000000000000000000000602082015250565b60006128a6602f83612839565b91506128b18261284a565b604082019050919050565b600060208201905081810360008301526128d581612899565b9050919050565b6128e581612338565b82525050565b600060208201905061290060008301846128dc565b92915050565b600081519050612915816123d7565b92915050565b60006020828403121561293157612930612258565b5b600061293f84828501612906565b91505092915050565b60008151905061295781612622565b92915050565b60008060006060848603121561297657612975612258565b5b600061298486828701612948565b935050602061299586828701612906565b92505060406129a686828701612906565b9150509250925092565b60006020820190506129c560008301846125c0565b92915050565b60006040820190506129e060008301856128dc565b6129ed60208301846125c0565b9392505050565b6000604082019050612a0960008301856123ad565b612a1660208301846123ad565b9392505050565b6000604082019050612a3260008301856125c0565b612a3f60208301846123ad565b9392505050565b600081519050612a558161234a565b92915050565b600060208284031215612a7157612a70612258565b5b6000612a7f84828501612a46565b91505092915050565b7f5265656e7472616e637947756172643a207265656e7472616e742063616c6c00600082015250565b6000612abe601f83612839565b9150612ac982612a88565b602082019050919050565b60006020820190508181036000830152612aed81612ab1565b9050919050565b7f5061757361626c653a2070617573656400000000000000000000000000000000600082015250565b6000612b2a601083612839565b9150612b3582612af4565b602082019050919050565b60006020820190508181036000830152612b5981612b1d565b9050919050565b6000604082019050612b7560008301856128dc565b612b8260208301846123ad565b9392505050565b6000606082019050612b9e60008301866128dc565b612bab60208301856128dc565b612bb860408301846123ad565b949350505050565b612bc9816122e2565b8114612bd457600080fd5b50565b600081519050612be681612bc0565b92915050565b600060208284031215612c0257612c01612258565b5b6000612c1084828501612bd7565b91505092915050565b7f5361666545524332303a204552433230206f7065726174696f6e20646964206e60008201527f6f74207375636365656400000000000000000000000000000000000000000000602082015250565b6000612c75602a83612839565b9150612c8082612c19565b604082019050919050565b60006020820190508181036000830152612ca481612c68565b9050919050565b600081905092915050565b7f416363657373436f6e74726f6c3a206163636f756e7420000000000000000000600082015250565b6000612cec601783612cab565b9150612cf782612cb6565b601782019050919050565b600081519050919050565b60005b83811015612d2b578082015181840152602081019050612d10565b60008484015250505050565b6000612d4282612d02565b612d4c8185612cab565b9350612d5c818560208601612d0d565b80840191505092915050565b7f206973206d697373696e6720726f6c6520000000000000000000000000000000600082015250565b6000612d9e601183612cab565b9150612da982612d68565b601182019050919050565b6000612dbf82612cdf565b9150612dcb8285612d37565b9150612dd682612d91565b9150612de28284612d37565b91508190509392505050565b6000601f19601f8301169050919050565b6000612e0a82612d02565b612e148185612839565b9350612e24818560208601612d0d565b612e2d81612dee565b840191505092915050565b60006020820190508181036000830152612e528184612dff565b905092915050565b7f5061757361626c653a206e6f7420706175736564000000000000000000000000600082015250565b6000612e90601483612839565b9150612e9b82612e5a565b602082019050919050565b60006020820190508181036000830152612ebf81612e83565b9050919050565b7f4e487b7100000000000000000000000000000000000000000000000000000000600052604160045260246000fd5b7f4e487b7100000000000000000000000000000000000000000000000000000000600052603260045260246000fd5b6000612f2f826123a3565b915060008203612f4257612f41612700565b5b600182039050919050565b7f537472696e67733a20686578206c656e67746820696e73756666696369656e74600082015250565b6000612f83602083612839565b9150612f8e82612f4d565b602082019050919050565b60006020820190508181036000830152612fb281612f76565b9050919050565b7f416464726573733a20696e73756666696369656e742062616c616e636520666f60008201527f722063616c6c0000000000000000000000000000000000000000000000000000602082015250565b6000613015602683612839565b915061302082612fb9565b604082019050919050565b6000602082019050818103600083015261304481613008565b9050919050565b600081519050919050565b600081905092915050565b600061306c8261304b565b6130768185613056565b9350613086818560208601612d0d565b80840191505092915050565b600061309e8284613061565b915081905092915050565b7f416464726573733a2063616c6c20746f206e6f6e2d636f6e7472616374000000600082015250565b60006130df601d83612839565b91506130ea826130a9565b602082019050919050565b6000602082019050818103600083015261310e816130d2565b905091905056fea26469706673582212204761592ba535d233648f64ebd5db0bb46d07cd436e5ba0f3daa6b351c09b082b64736f6c63430008140033",
  "linkReferences": {},
  "deployedLinkReferences": {}
}