{
  "_format": "hh-sol-artifact-1",
  "contractName": "MockUSDC",
  "sourceName": "src/MockUSDC.sol",
  "abi": [
    {
      "inputs": [
        {
          "internalType": "address",
          "name": "initialOwner",
          "type": "address"
        }
      ],
      "stateMutability": "nonpayable",
      "type": "constructor"
    },
    {
      "anonymous": false,
      "inputs": [
        {
          "indexed": true,
          "internalType": "address",
          "name": "owner",
          "type": "address"
        },
        {
          "indexed": true,
          "internalType": "address",
          "name": "spender",
          "type": "address"
        },
        {
          "indexed": false,
          "internalType": "uint256",
          "name": "value",
          "type": "uint256"
        }
      ],
      "name": "Approval",
      "type": "event"
    },
    {
      "anonymous": false,
      "inputs": [
        {
          "indexed": true,
          "internalType": "address",
          "name": "from",
          "type": "address"
        },
        {
          "indexed": false,
          "internalType": "uint256",
          "name": "amount",
          "type": "uint256"
        }
      ],
      "name": "Burned",
      "type": "event"
    },
    {
      "anonymous": false,
      "inputs": [
        {
          "indexed": true,
          "internalType": "address",
          "name": "to",
          "type": "address"
        },
        {
          "indexed": false,
          "internalType": "uint256",
          "name": "amount",
          "type": "uint256"
        }
      ],
      "name": "Minted",
      "type": "event"
    },
    {
      "anonymous": false,
      "inputs": [
        {
          "indexed": true,
          "internalType": "address",
          "name": "previousOwner",
          "type": "address"
        },
        {
          "indexed": true,
          "internalType": "address",
          "name": "newOwner",
          "type": "address"
        }
      ],
      "name": "OwnershipTransferred",
      "type": "event"
    },
    {
      "anonymous": false,
      "inputs": [
        {
          "indexed": true,
          "internalType": "address",
          "name": "from",
          "type": "address"
        },
        {
          "indexed": true,
          "internalType": "address",
          "name": "to",
          "type": "address"
        },
        {
          "indexed": false,
          "internalType": "uint256",
          "name": "value",
          "type": "uint256"
        }
      ],
      "name": "Transfer",
      "type": "event"
    },
    {
      "inputs": [
        {
          "internalType": "address",
          "name": "owner",
          "type": "address"
        },
        {
          "internalType": "address",
          "name": "spender",
          "type": "address"
        }
      ],
      "name": "allowance",
      "outputs": [
        {
          "internalType": "uint256",
          "name": "",
          "type": "uint256"
        }
      ],
      "stateMutability": "view",
      "type": "function"
    },
    {
      "inputs": [
        {
          "internalType": "address",
          "name": "spender",
          "type": "address"
        },
        {
          "internalType": "uint256",
          "name": "amount",
          "type": "uint256"
        }
      ],
      "name": "approve",
      "outputs": [
        {
          "internalType": "bool",
          "name": "",
          "type": "bool"
        }
      ],
      "stateMutability": "nonpayable",
      "type": "function"
    },
    {
      "inputs": [
        {
          "internalType": "address",
          "name": "account",
          "type": "address"
        }
      ],
      "name": "balanceInDollars",
      "outputs": [
        {
          "internalType": "uint256",
          "name": "",
          "type": "uint256"
        }
      ],
      "stateMutability": "view",
      "type": "function"
    },
    {
      "inputs": [
        {
          "internalType": "address",
          "name": "account",
          "type": "address"
        }
      ],
      "name": "balanceOf",
      "outputs": [
        {
          "internalType": "uint256",
          "name": "",
          "type": "uint256"
        }
      ],
      "stateMutability": "view",
      "type": "function"
    },
    {
      "inputs": [
        {
          "internalType": "address",
          "name": "from",
          "type": "address"
        },
        {
          "internalType": "uint256",
          "name": "amount",
          "type": "uint256"
        }
      ],
      "name": "burn",
      "outputs": [],
      "stateMutability": "nonpayable",
      "type": "function"
    },
    {
      "inputs": [],
      "name": "decimals",
      "outputs": [
        {
          "internalType": "uint8",
          "name": "",
          "type": "uint8"
        }
      ],
      "stateMutability": "pure",
      "type": "function"
    },
    {
      "inputs": [
        {
          "internalType": "address",
          "name": "spender",
          "type": "address"
        },
        {
          "internalType": "uint256",
          "name": "subtractedValue",
          "type": "uint256"
        }
      ],
      "name": "decreaseAllowance",
      "outputs": [
        {
          "internalType": "bool",
          "name": "",
          "type": "bool"
        }
      ],
      "stateMutability": "nonpayable",
      "type": "function"
    },
    {
      "inputs": [],
      "name": "faucet",
      "outputs": [],
      "stateMutability": "nonpayable",
      "type": "function"
    },
    {
      "inputs": [
        {
          "internalType": "address",
          "name": "spender",
          "type": "address"
        },
        {
          "internalType": "uint256",
          "name": "addedValue",
          "type": "uint256"
        }
      ],
      "name": "increaseAllowance",
      "outputs": [
        {
          "internalType": "bool",
          "name": "",
          "type": "bool"
        }
      ],
      "stateMutability": "nonpayable",
      "type": "function"
    },
    {
      "inputs": [
        {
          "internalType": "address",
          "name": "to",
          "type": "address"
        },
        {
          "internalType": "uint256",
          "name": "amount",
          "type": "uint256"
        }
      ],
      "name": "mint",
      "outputs": [],
      "stateMutability": "nonpayable",
      "type": "function"
    },
    {
      "inputs": [
        {
          "internalType": "address",
          "name": "to",
          "type": "address"
        },
        {
          "internalType": "uint256",
          "name": "amountInDollars",
          "type": "uint256"
        }
      ],
      "name": "mintDollars",
      "outputs": [],
      "stateMutability": "nonpayable",
      "type": "function"
    },
    {
      "inputs": [],
      "name": "name",
      "outputs": [
        {
          "internalType": "string",
          "name": "",
          "type": "string"
        }
      ],
      "stateMutability": "view",
      "type": "function"
    },
    {
      "inputs": [],
      "name": "owner",
      "outputs": [
        {
          "internalType": "address",
          "name": "",
          "type": "address"
        }
      ],
      "stateMutability": "view",
      "type": "function"
    },
    {
      "inputs": [],
      "name": "renounceOwnership",
      "outputs": [],
      "stateMutability": "nonpayable",
      "type": "function"
    },
    {
      "inputs": [],
      "name": "symbol",
      "outputs": [
        {
          "internalType": "string",
          "name": "",
          "type": "string"
        }
      ],
      "stateMutability": "view",
      "type": "function"
    },
    {
      "inputs": [],
      "name": "totalSupply",
      "outputs": [
        {
          "internalType": "uint256",
          "name": "",
          "type": "uint256"
        }
      ],
      "stateMutability": "view",
      "type": "function"
    },
    {
      "inputs": [
        {
          "internalType": "address",
          "name": "to",
          "type": "address"
        },
        {
          "internalType": "uint256",
          "name": "amount",
          "type": "uint256"
        }
      ],
      "name": "transfer",
      "outputs": [
        {
          "internalType": "bool",
          "name": "",
          "type": "bool"
        }
      ],
      "stateMutability": "nonpayable",
      "type": "function"
    },
    {
      "inputs": [
        {
          "internalType": "address",
          "name": "from",
          "type": "address"
        },
        {
          "internalType": "address",
          "name": "to",
          "type": "address"
        },
        {
          "internalType": "uint256",
          "name": "amount",
          "type": "uint256"
        }
      ],
      "name": "transferFrom",
      "outputs": [
        {
          "internalType": "bool",
          "name": "",
          "type": "bool"
        }
      ],
      "stateMutability": "nonpayable",
      "type": "function"
    },
    {
      "inputs": [
        {
          "internalType": "address",
          "name": "newOwner",
          "type": "address"
        }
      ],
      "name": "transferOwnership",
      "outputs": [],
      "stateMutability": "nonpayable",
      "type": "function"
    }
  ],
  "bytecode": "0x60806040523480156200001157600080fd5b5060405162002adf38038062002adf8339818101604052810190620000379190620003e1565b6040518060400160405280600981526020017f4d6f636b205553444300000000000000000000000000000000000000000000008152506040518060400160405280600581526020017f4d555344430000000000000000000000000000000000000000000000000000008152508160039081620000b491906200068d565b508060049081620000c691906200068d565b505050620000e9620000dd6200013260201b60201c565b6200013a60201b60201c565b620000fa816200013a60201b60201c565b6200012b816006600a6200010f919062000904565b620f42406200011f919062000955565b6200020060201b60201c565b5062000a8c565b600033905090565b6000600560009054906101000a900473ffffffffffffffffffffffffffffffffffffffff16905081600560006101000a81548173ffffffffffffffffffffffffffffffffffffffff021916908373ffffffffffffffffffffffffffffffffffffffff1602179055508173ffffffffffffffffffffffffffffffffffffffff168173ffffffffffffffffffffffffffffffffffffffff167f8be0079c531659141344cd1fd0a4f28419497f9722a3daafe3b4186f6b6457e060405160405180910390a35050565b600073ffffffffffffffffffffffffffffffffffffffff168273ffffffffffffffffffffffffffffffffffffffff160362000272576040517f08c379a0000000000000000000000000000000000000000000000000000000008152600401620002699062000a01565b60405180910390fd5b62000286600083836200036d60201b60201c565b80600260008282546200029a919062000a23565b92505081905550806000808473ffffffffffffffffffffffffffffffffffffffff1673ffffffffffffffffffffffffffffffffffffffff168152602001908152602001600020600082825401925050819055508173ffffffffffffffffffffffffffffffffffffffff16600073ffffffffffffffffffffffffffffffffffffffff167fddf252ad1be2c89b69c2b068fc378daa952ba7f163c4a11628f55a4df523b3ef836040516200034d919062000a6f565b60405180910390a362000369600083836200037260201b60201c565b5050565b505050565b505050565b600080fd5b600073ffffffffffffffffffffffffffffffffffffffff82169050919050565b6000620003a9826200037c565b9050919050565b620003bb816200039c565b8114620003c757600080fd5b50565b600081519050620003db81620003b0565b92915050565b600060208284031215620003fa57620003f962000377565b5b60006200040a84828501620003ca565b91505092915050565b600081519050919050565b7f4e487b7100000000000000000000000000000000000000000000000000000000600052604160045260246000fd5b7f4e487b7100000000000000000000000000000000000000000000000000000000600052602260045260246000fd5b600060028204905060018216806200049557607f821691505b602082108103620004ab57620004aa6200044d565b5b50919050565b60008190508160005260206000209050919050565b60006020601f8301049050919050565b600082821b905092915050565b600060088302620005157fffffffffffffffffffffffffffffffffffffffffffffffffffffffffffffffff82620004d6565b620005218683620004d6565b95508019841693508086168417925050509392505050565b6000819050919050565b6000819050919050565b60006200056e62000568620005628462000539565b62000543565b62000539565b9050919050565b6000819050919050565b6200058a836200054d565b620005a2620005998262000575565b848454620004e3565b825550505050565b600090565b620005b9620005aa565b620005c68184846200057f565b505050565b5b81811015620005ee57620005e2600082620005af565b600181019050620005cc565b5050565b601f8211156200063d576200060781620004b1565b6200061284620004c6565b8101602085101562000622578190505b6200063a6200063185620004c6565b830182620005cb565b50505b505050565b600082821c905092915050565b6000620006626000198460080262000642565b1980831691505092915050565b60006200067d83836200064f565b9150826002028217905092915050565b620006988262000413565b67ffffffffffffffff811115620006b457620006b36200041e565b5b620006c082546200047c565b620006cd828285620005f2565b600060209050601f831160018114620007055760008415620006f0578287015190505b620006fc85826200066f565b8655506200076c565b601f1984166200071586620004b1565b60005b828110156200073f5784890151825560018201915060208501945060208101905062000718565b868310156200075f57848901516200075b601f8916826200064f565b8355505b6001600288020188555050505b505050505050565b7f4e487b7100000000000000000000000000000000000000000000000000000000600052601160045260246000fd5b60008160011c9050919050565b6000808291508390505b60018511156200080257808604811115620007da57620007d962000774565b5b6001851615620007ea5780820291505b8081029050620007fa85620007a3565b9450620007ba565b94509492505050565b6000826200081d5760019050620008f0565b816200082d5760009050620008f0565b8160018114620008465760028114620008515762000887565b6001915050620008f0565b60ff84111562000866576200086562000774565b5b8360020a91508482111562000880576200087f62000774565b5b50620008f0565b5060208310610133831016604e8410600b8410161715620008c15782820a905083811115620008bb57620008ba62000774565b5b620008f0565b620008d08484846001620007b0565b92509050818404811115620008ea57620008e962000774565b5b81810290505b9392505050565b600060ff82169050919050565b6000620009118262000539565b91506200091e83620008f7565b92506200094d7fffffffffffffffffffffffffffffffffffffffffffffffffffffffffffffffff84846200080b565b905092915050565b6000620009628262000539565b91506200096f8362000539565b92508282026200097f8162000539565b9150828204841483151762000999576200099862000774565b5b5092915050565b600082825260208201905092915050565b7f45524332303a206d696e7420746f20746865207a65726f206164647265737300600082015250565b6000620009e9601f83620009a0565b9150620009f682620009b1565b602082019050919050565b6000602082019050818103600083015262000a1c81620009da565b9050919050565b600062000a308262000539565b915062000a3d8362000539565b925082820190508082111562000a585762000a5762000774565b5b92915050565b62000a698162000539565b82525050565b600060208201905062000a86600083018462000a5e565b92915050565b6120438062000a9c6000396000f3fe608060405234801561001057600080fd5b50600436106101215760003560e01c8063715018a6116100ad578063a9059cbb11610071578063a9059cbb1461031e578063afd1b7df1461034e578063dd62ed3e1461036a578063de5f72fd1461039a578063f2fde38b146103a457610121565b8063715018a61461028c5780638da5cb5b1461029657806395d89b41146102b45780639dc29fac146102d2578063a457c2d7146102ee57610121565b8063313ce567116100f4578063313ce567146101c257806339509351146101e057806340c10f19146102105780634f6ba1621461022c57806370a082311461025c57610121565b806306fdde0314610126578063095ea7b31461014457806318160ddd1461017457806323b872dd14610192575b600080fd5b61012e6103c0565b60405161013b91906113b6565b60405180910390f35b61015e60048036038101906101599190611471565b610452565b60405161016b91906114cc565b60405180910390f35b61017c610475565b60405161018991906114f6565b60405180910390f35b6101ac60048036038101906101a79190611511565b61047f565b6040516101b991906114cc565b60405180910390f35b6101ca6104ae565b6040516101d79190611580565b60405180910390f35b6101fa60048036038101906101f59190611471565b6104b7565b60405161020791906114cc565b60405180910390f35b61022a60048036038101906102259190611471565b6104ee565b005b6102466004803603810190610241919061159b565b610552565b60405161025391906114f6565b60405180910390f35b6102766004803603810190610271919061159b565b61057c565b60405161028391906114f6565b60405180910390f35b6102946105c4565b005b61029e6105d8565b6040516102ab91906115d7565b60405180910390f35b6102bc610602565b6040516102c991906113b6565b60405180910390f35b6102ec60048036038101906102e79190611471565b610694565b005b61030860048036038101906103039190611471565b6106f8565b60405161031591906114cc565b60405180910390f35b61033860048036038101906103339190611471565b61076f565b60405161034591906114cc565b60405180910390f35b61036860048036038101906103639190611471565b610792565b005b610384600480360381019061037f91906115f2565b610814565b60405161039191906114f6565b60405180910390f35b6103a261089b565b005b6103be60048036038101906103b9919061159b565b61095f565b005b6060600380546103cf90611661565b80601f01602080910402602001604051908101604052809291908181526020018280546103fb90611661565b80156104485780601f1061041d57610100808354040283529160200191610448565b820191906000526020600020905b81548152906001019060200180831161042b57829003601f168201915b5050505050905090565b60008061045d6109e2565b905061046a8185856109ea565b600191505092915050565b6000600254905090565b60008061048a6109e2565b9050610497858285610bb3565b6104a2858585610c3f565b60019150509392505050565b60006006905090565b6000806104c26109e2565b90506104e38185856104d48589610814565b6104de91906116c1565b6109ea565b600191505092915050565b6104f6610eb5565b6105008282610f33565b8173ffffffffffffffffffffffffffffffffffffffff167f30385c845b448a36257a6a1716e6ad2e1bc2cbe333cde1e69fe849ad6511adfe8260405161054691906114f6565b60405180910390a25050565b60006006600a6105629190611828565b61056b8361057c565b61057591906118a2565b9050919050565b60008060008373ffffffffffffffffffffffffffffffffffffffff1673ffffffffffffffffffffffffffffffffffffffff168152602001908152602001600020549050919050565b6105cc610eb5565b6105d66000611089565b565b6000600560009054906101000a900473ffffffffffffffffffffffffffffffffffffffff16905090565b60606004805461061190611661565b80601f016020809104026020016040519081016040528092919081815260200182805461063d90611661565b801561068a5780601f1061065f5761010080835404028352916020019161068a565b820191906000526020600020905b81548152906001019060200180831161066d57829003601f168201915b5050505050905090565b61069c610eb5565b6106a6828261114f565b8173ffffffffffffffffffffffffffffffffffffffff167f696de425f79f4a40bc6d2122ca50507f0efbeabbff86a84871b7196ab8ea8df7826040516106ec91906114f6565b60405180910390a25050565b6000806107036109e2565b905060006107118286610814565b905083811015610756576040517f08c379a000000000000000000000000000000000000000000000000000000000815260040161074d90611945565b60405180910390fd5b61076382868684036109ea565b60019250505092915050565b60008061077a6109e2565b9050610787818585610c3f565b600191505092915050565b61079a610eb5565b60006006600a6107aa9190611828565b826107b59190611965565b90506107c18382610f33565b8273ffffffffffffffffffffffffffffffffffffffff167f30385c845b448a36257a6a1716e6ad2e1bc2cbe333cde1e69fe849ad6511adfe8260405161080791906114f6565b60405180910390a2505050565b6000600160008473ffffffffffffffffffffffffffffffffffffffff1673ffffffffffffffffffffffffffffffffffffffff16815260200190815260200160002060008373ffffffffffffffffffffffffffffffffffffffff1673ffffffffffffffffffffffffffffffffffffffff16815260200190815260200160002054905092915050565b60006006600a6108ab9190611828565b6103e86108b89190611965565b9050806108c43361057c565b10610904576040517f08c379a00000000000000000000000000000000000000000000000000000000081526004016108fb90611a19565b60405180910390fd5b61090e3382610f33565b3373ffffffffffffffffffffffffffffffffffffffff167f30385c845b448a36257a6a1716e6ad2e1bc2cbe333cde1e69fe849ad6511adfe8260405161095491906114f6565b60405180910390a250565b610967610eb5565b600073ffffffffffffffffffffffffffffffffffffffff168173ffffffffffffffffffffffffffffffffffffffff16036109d6576040517f08c379a00000000000000000000000000000000000000000000000000000000081526004016109cd90611aab565b60405180910390fd5b6109df81611089565b50565b600033905090565b600073ffffffffffffffffffffffffffffffffffffffff168373ffffffffffffffffffffffffffffffffffffffff1603610a59576040517f08c379a0000000000000000000000000000000000000000000000000000000008152600401610a5090611b3d565b60405180910390fd5b600073ffffffffffffffffffffffffffffffffffffffff168273ffffffffffffffffffffffffffffffffffffffff1603610ac8576040517f08c379a0000000000000000000000000000000000000000000000000000000008152600401610abf90611bcf565b60405180910390fd5b80600160008573ffffffffffffffffffffffffffffffffffffffff1673ffffffffffffffffffffffffffffffffffffffff16815260200190815260200160002060008473ffffffffffffffffffffffffffffffffffffffff1673ffffffffffffffffffffffffffffffffffffffff168152602001908152602001600020819055508173ffffffffffffffffffffffffffffffffffffffff168373ffffffffffffffffffffffffffffffffffffffff167f8c5be1e5ebec7d5bd14f71427d1e84f3dd0314c0f7b2291e5b200ac8c7c3b92583604051610ba691906114f6565b60405180910390a3505050565b6000610bbf8484610814565b90507fffffffffffffffffffffffffffffffffffffffffffffffffffffffffffffffff8114610c395781811015610c2b576040517f08c379a0000000000000000000000000000000000000000000000000000000008152600401610c2290611c3b565b60405180910390fd5b610c3884848484036109ea565b5b50505050565b600073ffffffffffffffffffffffffffffffffffffffff168373ffffffffffffffffffffffffffffffffffffffff1603610cae576040517f08c379a0000000000000000000000000000000000000000000000000000000008152600401610ca590611ccd565b60405180910390fd5b600073ffffffffffffffffffffffffffffffffffffffff168273ffffffffffffffffffffffffffffffffffffffff1603610d1d576040517f08c379a0000000000000000000000000000000000000000000000000000000008152600401610d1490611d5f565b60405180910390fd5b610d2883838361131c565b60008060008573ffffffffffffffffffffffffffffffffffffffff1673ffffffffffffffffffffffffffffffffffffffff16815260200190815260200160002054905081811015610dae576040517f08c379a0000000000000000000000000000000000000000000000000000000008152600401610da590611df1565b60405180910390fd5b8181036000808673ffffffffffffffffffffffffffffffffffffffff1673ffffffffffffffffffffffffffffffffffffffff16815260200190815260200160002081905550816000808573ffffffffffffffffffffffffffffffffffffffff1673ffffffffffffffffffffffffffffffffffffffff168152602001908152602001600020600082825401925050819055508273ffffffffffffffffffffffffffffffffffffffff168473ffffffffffffffffffffffffffffffffffffffff167fddf252ad1be2c89b69c2b068fc378daa952ba7f163c4a11628f55a4df523b3ef84604051610e9c91906114f6565b60405180910390a3610eaf848484611321565b50505050565b610ebd6109e2565b73ffffffffffffffffffffffffffffffffffffffff16610edb6105d8565b73ffffffffffffffffffffffffffffffffffffffff1614610f31576040517f08c379a0000000000000000000000000000000000000000000000000000000008152600401610f2890611e5d565b60405180910390fd5b565b600073ffffffffffffffffffffffffffffffffffffffff168273ffffffffffffffffffffffffffffffffffffffff1603610fa2576040517f08c379a0000000000000000000000000000000000000000000000000000000008152600401610f9990611ec9565b60405180910390fd5b610fae6000838361131c565b8060026000828254610fc091906116c1565b92505081905550806000808473ffffffffffffffffffffffffffffffffffffffff1673ffffffffffffffffffffffffffffffffffffffff168152602001908152602001600020600082825401925050819055508173ffffffffffffffffffffffffffffffffffffffff16600073ffffffffffffffffffffffffffffffffffffffff167fddf252ad1be2c89b69c2b068fc378daa952ba7f163c4a11628f55a4df523b3ef8360405161107191906114f6565b60405180910390a361108560008383611321565b5050565b6000600560009054906101000a900473ffffffffffffffffffffffffffffffffffffffff16905081600560006101000a81548173ffffffffffffffffffffffffffffffffffffffff021916908373ffffffffffffffffffffffffffffffffffffffff1602179055508173ffffffffffffffffffffffffffffffffffffffff168173ffffffffffffffffffffffffffffffffffffffff167f8be0079c531659141344cd1fd0a4f28419497f9722a3daafe3b4186f6b6457e060405160405180910390a35050565b600073ffffffffffffffffffffffffffffffffffffffff168273ffffffffffffffffffffffffffffffffffffffff16036111be576040517f08c379a00000000000000000000000000000000000000000000000000000000081526004016111b590611f5b565b60405180910390fd5b6111ca8260008361131c565b60008060008473ffffffffffffffffffffffffffffffffffffffff1673ffffffffffffffffffffffffffffffffffffffff16815260200190815260200160002054905081811015611250576040517f08c379a000000000000000000000000000000000000000000000000000000000815260040161124790611fed565b60405180910390fd5b8181036000808573ffffffffffffffffffffffffffffffffffffffff1673ffffffffffffffffffffffffffffffffffffffff1681526020019081526020016000208190555081600260008282540392505081905550600073ffffffffffffffffffffffffffffffffffffffff168373ffffffffffffffffffffffffffffffffffffffff167fddf252ad1be2c89b69c2b068fc378daa952ba7f163c4a11628f55a4df523b3ef8460405161130391906114f6565b60405180910390a361131783600084611321565b505050565b505050565b505050565b600081519050919050565b600082825260208201905092915050565b60005b83811015611360578082015181840152602081019050611345565b60008484015250505050565b6000601f19601f8301169050919050565b600061138882611326565b6113928185611331565b93506113a2818560208601611342565b6113ab8161136c565b840191505092915050565b600060208201905081810360008301526113d0818461137d565b905092915050565b600080fd5b600073ffffffffffffffffffffffffffffffffffffffff82169050919050565b6000611408826113dd565b9050919050565b611418816113fd565b811461142357600080fd5b50565b6000813590506114358161140f565b92915050565b6000819050919050565b61144e8161143b565b811461145957600080fd5b50565b60008135905061146b81611445565b92915050565b60008060408385031215611488576114876113d8565b5b600061149685828601611426565b92505060206114a78582860161145c565b9150509250929050565b60008115159050919050565b6114c6816114b1565b82525050565b60006020820190506114e160008301846114bd565b92915050565b6114f08161143b565b82525050565b600060208201905061150b60008301846114e7565b92915050565b60008060006060848603121561152a576115296113d8565b5b600061153886828701611426565b935050602061154986828701611426565b925050604061155a8682870161145c565b9150509250925092565b600060ff82169050919050565b61157a81611564565b82525050565b60006020820190506115956000830184611571565b92915050565b6000602082840312156115b1576115b06113d8565b5b60006115bf84828501611426565b91505092915050565b6115d1816113fd565b82525050565b60006020820190506115ec60008301846115c8565b92915050565b60008060408385031215611609576116086113d8565b5b600061161785828601611426565b925050602061162885828601611426565b9150509250929050565b7f4e487b7100000000000000000000000000000000000000000000000000000000600052602260045260246000fd5b6000600282049050600182168061167957607f821691505b60208210810361168c5761168b611632565b5b50919050565b7f4e487b7100000000000000000000000000000000000000000000000000000000600052601160045260246000fd5b60006116cc8261143b565b91506116d78361143b565b92508282019050808211156116ef576116ee611692565b5b92915050565b60008160011c9050919050565b6000808291508390505b600185111561174c5780860481111561172857611727611692565b5b60018516156117375780820291505b8081029050611745856116f5565b945061170c565b94509492505050565b6000826117655760019050611821565b816117735760009050611821565b81600181146117895760028114611793576117c2565b6001915050611821565b60ff8411156117a5576117a4611692565b5b8360020a9150848211156117bc576117bb611692565b5b50611821565b5060208310610133831016604e8410600b84101617156117f75782820a9050838111156117f2576117f1611692565b5b611821565b6118048484846001611702565b9250905081840481111561181b5761181a611692565b5b81810290505b9392505050565b60006118338261143b565b915061183e83611564565b925061186b7fffffffffffffffffffffffffffffffffffffffffffffffffffffffffffffffff8484611755565b905092915050565b7f4e487b7100000000000000000000000000000000000000000000000000000000600052601260045260246000fd5b60006118ad8261143b565b91506118b88361143b565b9250826118c8576118c7611873565b5b828204905092915050565b7f45524332303a2064656372656173656420616c6c6f77616e63652062656c6f7760008201527f207a65726f000000000000000000000000000000000000000000000000000000602082015250565b600061192f602583611331565b915061193a826118d3565b604082019050919050565b6000602082019050818103600083015261195e81611922565b9050919050565b60006119708261143b565b915061197b8361143b565b92508282026119898161143b565b915082820484148315176119a05761199f611692565b5b5092915050565b7f4d6f636b555344433a20416c72656164792068617320656e6f75676820746f6b60008201527f656e730000000000000000000000000000000000000000000000000000000000602082015250565b6000611a03602383611331565b9150611a0e826119a7565b604082019050919050565b60006020820190508181036000830152611a32816119f6565b9050919050565b7f4f776e61626c653a206e6577206f776e657220697320746865207a65726f206160008201527f6464726573730000000000000000000000000000000000000000000000000000602082015250565b6000611a95602683611331565b9150611aa082611a39565b604082019050919050565b60006020820190508181036000830152611ac481611a88565b9050919050565b7f45524332303a20617070726f76652066726f6d20746865207a65726f2061646460008201527f7265737300000000000000000000000000000000000000000000000000000000602082015250565b6000611b27602483611331565b9150611b3282611acb565b604082019050919050565b60006020820190508181036000830152611b5681611b1a565b9050919050565b7f45524332303a20617070726f766520746f20746865207a65726f20616464726560008201527f7373000000000000000000000000000000000000000000000000000000000000602082015250565b6000611bb9602283611331565b9150611bc482611b5d565b604082019050919050565b60006020820190508181036000830152611be881611bac565b9050919050565b7f45524332303a20696e73756666696369656e7420616c6c6f77616e6365000000600082015250565b6000611c25601d83611331565b9150611c3082611bef565b602082019050919050565b60006020820190508181036000830152611c5481611c18565b9050919050565b7f45524332303a207472616e736665722066726f6d20746865207a65726f20616460008201527f6472657373000000000000000000000000000000000000000000000000000000602082015250565b6000611cb7602583611331565b9150611cc282611c5b565b604082019050919050565b60006020820190508181036000830152611ce681611caa565b9050919050565b7f45524332303a207472616e7366657220746f20746865207a65726f206164647260008201527f6573730000000000000000000000000000000000000000000000000000000000602082015250565b6000611d49602383611331565b9150611d5482611ced565b604082019050919050565b60006020820190508181036000830152611d7881611d3c565b9050919050565b7f45524332303a207472616e7366657220616d6f756e742065786365656473206260008201527f616c616e63650000000000000000000000000000000000000000000000000000602082015250565b6000611ddb602683611331565b9150611de682611d7f565b604082019050919050565b60006020820190508181036000830152611e0a81611dce565b9050919050565b7f4f776e61626c653a2063616c6c6572206973206e6f7420746865206f776e6572600082015250565b6000611e47602083611331565b9150611e5282611e11565b602082019050919050565b60006020820190508181036000830152611e7681611e3a565b9050919050565b7f45524332303a206d696e7420746f20746865207a65726f206164647265737300600082015250565b6000611eb3601f83611331565b9150611ebe82611e7d565b602082019050919050565b60006020820190508181036000830152611ee281611ea6565b9050919050565b7f45524332303a206275726e2066726f6d20746865207a65726f2061646472657360008201527f7300000000000000000000000000000000000000000000000000000000000000602082015250565b6000611f45602183611331565b9150611f5082611ee9565b604082019050919050565b60006020820190508181036000830152611f7481611f38565b9050919050565b7f45524332303a206275726e20616d6f756e7420657863656564732062616c616e60008201527f6365000000000000000000000000000000000000000000000000000000000000602082015250565b6000611fd7602283611331565b9150611fe282611f7b565b604082019050919050565b6000602082019050818103600083015261200681611fca565b905091905056fea264697066735822122083076acead73d7b5605f3a01064d9b00a2bd2422e23c665e1dbfc18491a66e6164736f6c63430008140033",
  "linkReferences": {},
  "deployedLinkReferences": {}
}